:100000000C9434000C943E000C943E000C943E0082
:100010000C943E000C943E000C943E000C943E0068
:100020000C943E000C943E000C943E000C943E0058
:100030000C943E000C943E000C943E000C943E0048
:100040000C943E000C943E000C943E000C943E0038
:100050000C943E000C943E000C943E000C943E0028
:100060000C943E000C943E0011241FBECFEFD8E04C
:10007000DEBFCDBF0E945D000C9499000C9400007F
:100080002398569A089585B5816085BD85B58260AF
:1000900085BD85B58B7F85BD84B5816084BD84B504
:1000A000826084BD85B58E7F85BD84B5806884BD42
:1000B00084B58F7B84BD17BC08950E9443000E94C5
:1000C000400041EE3DEC2BE999E687E347BD5FEF49
:1000D00069E678E1515060407040E1F700C00000EF
:1000E00037BD5FEF69E678E1515060407040E1F75D
:1000F00000C0000027BD5FEF69E678E15150604025
:100100007040E1F700C0000097BD5FEF69E678E15D
:10011000515060407040E1F700C0000087BD5FEFC4
:1001200069E678E1515060407040E1F700C000009E
:06013000CDCFF894FFCFD3
:00000001FF
