:100000000C9434000C9451000C9451000C94510049
:100010000C9451000C9451000C9451000C9451001C
:100020000C9451000C9451000C9451000C9451000C
:100030000C9451000C9451000C9451000C945100FC
:100040000C9451000C9451000C9451000C945100EC
:100050000C9451000C9451000C9451000C945100DC
:100060000C9451000C94510011241FBECFEFD8E026
:10007000DEBFCDBF11E0A0E0B1E0E6E7F1E002C0F5
:1000800005900D92A230B107D9F721E0A2E0B1E0CE
:1000900001C01D92A330B207E1F70E9497000C94B3
:1000A000B9000C940000809102018F3F99F08111FA
:1000B00008C091E09093000191E0980F90930201A5
:1000C0000895909100019111F7CF9FEF980F9093B1
:1000D00002010895109200019FEF980F9093020182
:1000E00008952398569A089584B5816084BD84B597
:1000F000826084BD84B5806884BD85B5816085BD1E
:1001000085B5826085BD89EF8093B300E0EBF0E0B8
:10011000808182608083E1EBF0E080818160808378
:1001200080818260808380818460808308950E94C2
:1001300074000E94710021E0B99BFECF8091020102
:100140008F3FA1F0811109C02093000191E0980F29
:100150009093020187BDB99AEFCF90910001911160
:10016000F5CF9FEF980F90930201F4CF109200010A
:06017000F8CFF894FFCF68
:02017600010086
:00000001FF
