:100000000C9434000C943E000C943E000C943E0082
:100010000C943E000C943E000C943E000C943E0068
:100020000C943E000C943E000C943E000C943E0058
:100030000C943E000C943E000C943E000C943E0048
:100040000C943E000C943E000C943E000C943E0038
:100050000C943E000C943E000C943E000C943E0028
:100060000C943E000C943E0011241FBECFEFD8E04C
:10007000DEBFCDBF0E9467000C947B000C94000093
:100080002398549A5C9A0895811102C02A9A08957F
:100090002A9808955C9A9BB180E189278BB90895CD
:1000A0009BB180E189278BB9089584B58E7F84BD8B
:1000B00085B5877F85BD84B5826084BD85B5846044
:1000C00085BD85B5816085BD8CE987BD08950E9499
:1000D00040000E94550080E090E0A99BFECF019671
:1000E0008B30910514F4A99AF8CF0E94500080E05B
:0A00F00090E0A99AF2CFF894FFCF38
:00000001FF
